{
  "_format": "hh-sol-artifact-1",
  "contractName": "SmartWallet",
  "sourceName": "contracts/Wallet.sol",
  "abi": [
    {
      "inputs": [
        {
          "internalType": "address",
          "name": "_owner",
          "type": "address"
        }
      ],
      "stateMutability": "nonpayable",
      "type": "constructor"
    },
    {
      "anonymous": false,
      "inputs": [
        {
          "indexed": true,
          "internalType": "address",
          "name": "sender",
          "type": "address"
        },
        {
          "indexed": false,
          "internalType": "uint256",
          "name": "amount",
          "type": "uint256"
        }
      ],
      "name": "DepositReceived",
      "type": "event"
    },
    {
      "anonymous": false,
      "inputs": [
        {
          "indexed": true,
          "internalType": "address",
          "name": "from",
          "type": "address"
        },
        {
          "indexed": true,
          "internalType": "address",
          "name": "to",
          "type": "address"
        },
        {
          "indexed": false,
          "internalType": "uint256",
          "name": "amount",
          "type": "uint256"
        },
        {
          "indexed": false,
          "internalType": "bytes",
          "name": "data",
          "type": "bytes"
        }
      ],
      "name": "TransactionProcessed",
      "type": "event"
    },
    {
      "inputs": [
        {
          "internalType": "address",
          "name": "_owner",
          "type": "address"
        },
        {
          "internalType": "uint256",
          "name": "amount",
          "type": "uint256"
        }
      ],
      "name": "deposit",
      "outputs": [],
      "stateMutability": "payable",
      "type": "function"
    },
    {
      "inputs": [
        {
          "components": [
            {
              "internalType": "address",
              "name": "sender",
              "type": "address"
            },
            {
              "internalType": "uint256",
              "name": "nonce",
              "type": "uint256"
            },
            {
              "internalType": "bytes",
              "name": "callData",
              "type": "bytes"
            },
            {
              "internalType": "uint256",
              "name": "callGas",
              "type": "uint256"
            },
            {
              "internalType": "uint256",
              "name": "verificationGas",
              "type": "uint256"
            },
            {
              "internalType": "uint256",
              "name": "preVerificationGas",
              "type": "uint256"
            },
            {
              "internalType": "uint256",
              "name": "maxFeePerGas",
              "type": "uint256"
            },
            {
              "internalType": "uint256",
              "name": "maxPriorityFeePerGas",
              "type": "uint256"
            },
            {
              "internalType": "bytes",
              "name": "signature",
              "type": "bytes"
            }
          ],
          "internalType": "struct UserOperation",
          "name": "userOp",
          "type": "tuple"
        }
      ],
      "name": "exec",
      "outputs": [],
      "stateMutability": "nonpayable",
      "type": "function"
    },
    {
      "inputs": [
        {
          "internalType": "address",
          "name": "targetAddress",
          "type": "address"
        }
      ],
      "name": "getBalance",
      "outputs": [
        {
          "internalType": "uint256",
          "name": "",
          "type": "uint256"
        }
      ],
      "stateMutability": "view",
      "type": "function"
    },
    {
      "inputs": [],
      "name": "owner",
      "outputs": [
        {
          "internalType": "address",
          "name": "",
          "type": "address"
        }
      ],
      "stateMutability": "view",
      "type": "function"
    },
    {
      "inputs": [
        {
          "internalType": "address payable",
          "name": "sender",
          "type": "address"
        },
        {
          "internalType": "address payable",
          "name": "to",
          "type": "address"
        },
        {
          "internalType": "uint256",
          "name": "amount",
          "type": "uint256"
        }
      ],
      "name": "sendEther",
      "outputs": [],
      "stateMutability": "nonpayable",
      "type": "function"
    },
    {
      "stateMutability": "payable",
      "type": "receive"
    }
  ],
  "bytecode": "0x608060405234801561001057600080fd5b50604051610d87380380610d87833981810160405281019061003291906100dc565b806000600c6101000a81548173ffffffffffffffffffffffffffffffffffffffff021916908373ffffffffffffffffffffffffffffffffffffffff16021790555050610109565b600080fd5b600073ffffffffffffffffffffffffffffffffffffffff82169050919050565b60006100a98261007e565b9050919050565b6100b98161009e565b81146100c457600080fd5b50565b6000815190506100d6816100b0565b92915050565b6000602082840312156100f2576100f1610079565b5b6000610100848285016100c7565b91505092915050565b610c6f806101186000396000f3fe60806040526004361061004e5760003560e01c80633885fd3d146100a857806347e7ef24146100d15780638da5cb5b146100ed578063f3561cc514610118578063f8b2cb4f14610141576100a3565b366100a3573373ffffffffffffffffffffffffffffffffffffffff167f9936746a4565f9766fa768f88f56a7487c78780ac179562773d1c75c5269537e3460405161009991906105ce565b60405180910390a2005b600080fd5b3480156100b457600080fd5b506100cf60048036038101906100ca919061067d565b61017e565b005b6100eb60048036038101906100e6919061070e565b61031f565b005b3480156100f957600080fd5b506101026104ad565b60405161010f919061075d565b60405180910390f35b34801561012457600080fd5b5061013f600480360381019061013a919061079d565b6104d3565b005b34801561014d57600080fd5b50610168600480360381019061016391906107e6565b610594565b60405161017591906105ce565b60405180910390f35b804710156101c1576040517f08c379a00000000000000000000000000000000000000000000000000000000081526004016101b890610870565b60405180910390fd5b8273ffffffffffffffffffffffffffffffffffffffff166108fc829081150290604051600060405180830381858888f19350505050158015610207573d6000803e3d6000fd5b5060008273ffffffffffffffffffffffffffffffffffffffff168260405161022e906108c1565b60006040518083038185875af1925050503d806000811461026b576040519150601f19603f3d011682016040523d82523d6000602084013e610270565b606091505b50509050806102b4576040517f08c379a00000000000000000000000000000000000000000000000000000000081526004016102ab90610922565b60405180910390fd5b8273ffffffffffffffffffffffffffffffffffffffff168473ffffffffffffffffffffffffffffffffffffffff167f87ccb56d61665932c42531b01a83fa5059d346635f361d1fb026c24e9babc29a846040516103119190610976565b60405180910390a350505050565b600073ffffffffffffffffffffffffffffffffffffffff168273ffffffffffffffffffffffffffffffffffffffff160361038e576040517f08c379a0000000000000000000000000000000000000000000000000000000008152600401610385906109f0565b60405180910390fd5b600081116103d1576040517f08c379a00000000000000000000000000000000000000000000000000000000081526004016103c890610a82565b60405180910390fd5b80341015610414576040517f08c379a000000000000000000000000000000000000000000000000000000000815260040161040b90610aee565b60405180910390fd5b8173ffffffffffffffffffffffffffffffffffffffff166108fc829081150290604051600060405180830381858888f1935050505015801561045a573d6000803e3d6000fd5b503373ffffffffffffffffffffffffffffffffffffffff167f9936746a4565f9766fa768f88f56a7487c78780ac179562773d1c75c5269537e826040516104a191906105ce565b60405180910390a25050565b6000600c9054906101000a900473ffffffffffffffffffffffffffffffffffffffff1681565b60003073ffffffffffffffffffffffffffffffffffffffff168280604001906104fc9190610b1d565b60405161050a929190610bb4565b6000604051808303816000865af19150503d8060008114610547576040519150601f19603f3d011682016040523d82523d6000602084013e61054c565b606091505b5050905080610590576040517f08c379a000000000000000000000000000000000000000000000000000000000815260040161058790610c19565b60405180910390fd5b5050565b60008173ffffffffffffffffffffffffffffffffffffffff16319050919050565b6000819050919050565b6105c8816105b5565b82525050565b60006020820190506105e360008301846105bf565b92915050565b600080fd5b600080fd5b600073ffffffffffffffffffffffffffffffffffffffff82169050919050565b600061061e826105f3565b9050919050565b61062e81610613565b811461063957600080fd5b50565b60008135905061064b81610625565b92915050565b61065a816105b5565b811461066557600080fd5b50565b60008135905061067781610651565b92915050565b600080600060608486031215610696576106956105e9565b5b60006106a48682870161063c565b93505060206106b58682870161063c565b92505060406106c686828701610668565b9150509250925092565b60006106db826105f3565b9050919050565b6106eb816106d0565b81146106f657600080fd5b50565b600081359050610708816106e2565b92915050565b60008060408385031215610725576107246105e9565b5b6000610733858286016106f9565b925050602061074485828601610668565b9150509250929050565b610757816106d0565b82525050565b6000602082019050610772600083018461074e565b92915050565b600080fd5b6000610120828403121561079457610793610778565b5b81905092915050565b6000602082840312156107b3576107b26105e9565b5b600082013567ffffffffffffffff8111156107d1576107d06105ee565b5b6107dd8482850161077d565b91505092915050565b6000602082840312156107fc576107fb6105e9565b5b600061080a848285016106f9565b91505092915050565b600082825260208201905092915050565b7f496e73756666696369656e742062616c616e6365000000000000000000000000600082015250565b600061085a601483610813565b915061086582610824565b602082019050919050565b600060208201905081810360008301526108898161084d565b9050919050565b600081905092915050565b50565b60006108ab600083610890565b91506108b68261089b565b600082019050919050565b60006108cc8261089e565b9150819050919050565b7f5472616e73666572206661696c65640000000000000000000000000000000000600082015250565b600061090c600f83610813565b9150610917826108d6565b602082019050919050565b6000602082019050818103600083015261093b816108ff565b9050919050565b600082825260208201905092915050565b6000610960600083610942565b915061096b8261089b565b600082019050919050565b600060408201905061098b60008301846105bf565b818103602083015261099c81610953565b905092915050565b7f496e76616c696420726563697069656e74206164647265737300000000000000600082015250565b60006109da601983610813565b91506109e5826109a4565b602082019050919050565b60006020820190508181036000830152610a09816109cd565b9050919050565b7f4465706f73697420616d6f756e74206d7573742062652067726561746572207460008201527f68616e2030000000000000000000000000000000000000000000000000000000602082015250565b6000610a6c602583610813565b9150610a7782610a10565b604082019050919050565b60006020820190508181036000830152610a9b81610a5f565b9050919050565b7f496e73756666696369656e742076616c75652073656e74000000000000000000600082015250565b6000610ad8601783610813565b9150610ae382610aa2565b602082019050919050565b60006020820190508181036000830152610b0781610acb565b9050919050565b600080fd5b600080fd5b600080fd5b60008083356001602003843603038112610b3a57610b39610b0e565b5b80840192508235915067ffffffffffffffff821115610b5c57610b5b610b13565b5b602083019250600182023603831315610b7857610b77610b18565b5b509250929050565b82818337600083830152505050565b6000610b9b8385610890565b9350610ba8838584610b80565b82840190509392505050565b6000610bc1828486610b8f565b91508190509392505050565b7f43616c6c20657865637574696f6e206661696c65640000000000000000000000600082015250565b6000610c03601583610813565b9150610c0e82610bcd565b602082019050919050565b60006020820190508181036000830152610c3281610bf6565b905091905056fea264697066735822122010658f5fa604440d38b34ad91a21c112a4358b383f8e7cd7ffd07cecd61bcb7964736f6c63430008140033",
  "linkReferences": {},
  "deployedLinkReferences": {}
}