{
  "_format": "hh-sol-artifact-1",
  "contractName": "SmartWallet",
  "sourceName": "contracts/Wallet.sol",
  "abi": [
    {
      "inputs": [
        {
          "internalType": "address",
          "name": "_owner",
          "type": "address"
        }
      ],
      "stateMutability": "nonpayable",
      "type": "constructor"
    },
    {
      "anonymous": false,
      "inputs": [
        {
          "indexed": true,
          "internalType": "address",
          "name": "sender",
          "type": "address"
        },
        {
          "indexed": false,
          "internalType": "uint256",
          "name": "amount",
          "type": "uint256"
        }
      ],
      "name": "DepositReceived",
      "type": "event"
    },
    {
      "anonymous": false,
      "inputs": [
        {
          "indexed": true,
          "internalType": "address",
          "name": "from",
          "type": "address"
        },
        {
          "indexed": true,
          "internalType": "address",
          "name": "to",
          "type": "address"
        },
        {
          "indexed": false,
          "internalType": "uint256",
          "name": "amount",
          "type": "uint256"
        },
        {
          "indexed": false,
          "internalType": "bytes",
          "name": "data",
          "type": "bytes"
        }
      ],
      "name": "TransactionProcessed",
      "type": "event"
    },
    {
      "inputs": [
        {
          "internalType": "address",
          "name": "_owner",
          "type": "address"
        },
        {
          "internalType": "uint256",
          "name": "amount",
          "type": "uint256"
        }
      ],
      "name": "deposit",
      "outputs": [],
      "stateMutability": "payable",
      "type": "function"
    },
    {
      "inputs": [
        {
          "components": [
            {
              "internalType": "address",
              "name": "sender",
              "type": "address"
            },
            {
              "internalType": "uint256",
              "name": "nonce",
              "type": "uint256"
            },
            {
              "internalType": "bytes",
              "name": "callData",
              "type": "bytes"
            },
            {
              "internalType": "uint256",
              "name": "callGas",
              "type": "uint256"
            },
            {
              "internalType": "uint256",
              "name": "verificationGas",
              "type": "uint256"
            },
            {
              "internalType": "uint256",
              "name": "preVerificationGas",
              "type": "uint256"
            },
            {
              "internalType": "uint256",
              "name": "maxFeePerGas",
              "type": "uint256"
            },
            {
              "internalType": "uint256",
              "name": "maxPriorityFeePerGas",
              "type": "uint256"
            },
            {
              "internalType": "bytes",
              "name": "signature",
              "type": "bytes"
            }
          ],
          "internalType": "struct UserOperation",
          "name": "userOp",
          "type": "tuple"
        }
      ],
      "name": "exec",
      "outputs": [],
      "stateMutability": "nonpayable",
      "type": "function"
    },
    {
      "inputs": [
        {
          "internalType": "address",
          "name": "targetAddress",
          "type": "address"
        }
      ],
      "name": "getBalance",
      "outputs": [
        {
          "internalType": "uint256",
          "name": "",
          "type": "uint256"
        }
      ],
      "stateMutability": "view",
      "type": "function"
    },
    {
      "inputs": [],
      "name": "owner",
      "outputs": [
        {
          "internalType": "address",
          "name": "",
          "type": "address"
        }
      ],
      "stateMutability": "view",
      "type": "function"
    },
    {
      "inputs": [
        {
          "internalType": "address payable",
          "name": "to",
          "type": "address"
        },
        {
          "internalType": "uint256",
          "name": "amount",
          "type": "uint256"
        }
      ],
      "name": "sendEther",
      "outputs": [],
      "stateMutability": "nonpayable",
      "type": "function"
    },
    {
      "stateMutability": "payable",
      "type": "receive"
    }
  ],
  "bytecode": "0x60806040523480156200001157600080fd5b506040516200189d3803806200189d8339818101604052810190620000379190620000e9565b806000600c6101000a81548173ffffffffffffffffffffffffffffffffffffffff021916908373ffffffffffffffffffffffffffffffffffffffff160217905550506200011b565b600080fd5b600073ffffffffffffffffffffffffffffffffffffffff82169050919050565b6000620000b18262000084565b9050919050565b620000c381620000a4565b8114620000cf57600080fd5b50565b600081519050620000e381620000b8565b92915050565b6000602082840312156200010257620001016200007f565b5b60006200011284828501620000d2565b91505092915050565b611772806200012b6000396000f3fe60806040526004361061004e5760003560e01c806347e7ef24146100a85780638da5cb5b146100c4578063c1756a2c146100ef578063f3561cc514610118578063f8b2cb4f14610141576100a3565b366100a3573373ffffffffffffffffffffffffffffffffffffffff167f9936746a4565f9766fa768f88f56a7487c78780ac179562773d1c75c5269537e346040516100999190610876565b60405180910390a2005b600080fd5b6100c260048036038101906100bd919061092f565b61017e565b005b3480156100d057600080fd5b506100d961030c565b6040516100e6919061097e565b60405180910390f35b3480156100fb57600080fd5b50610116600480360381019061011191906109d7565b610332565b005b34801561012457600080fd5b5061013f600480360381019061013a9190610a3c565b61048b565b005b34801561014d57600080fd5b5061016860048036038101906101639190610a85565b610595565b6040516101759190610876565b60405180910390f35b600073ffffffffffffffffffffffffffffffffffffffff168273ffffffffffffffffffffffffffffffffffffffff16036101ed576040517f08c379a00000000000000000000000000000000000000000000000000000000081526004016101e490610b0f565b60405180910390fd5b60008111610230576040517f08c379a000000000000000000000000000000000000000000000000000000000815260040161022790610ba1565b60405180910390fd5b80341015610273576040517f08c379a000000000000000000000000000000000000000000000000000000000815260040161026a90610c0d565b60405180910390fd5b8173ffffffffffffffffffffffffffffffffffffffff166108fc829081150290604051600060405180830381858888f193505050501580156102b9573d6000803e3d6000fd5b503373ffffffffffffffffffffffffffffffffffffffff167f9936746a4565f9766fa768f88f56a7487c78780ac179562773d1c75c5269537e826040516103009190610876565b60405180910390a25050565b6000600c9054906101000a900473ffffffffffffffffffffffffffffffffffffffff1681565b80471015610375576040517f08c379a000000000000000000000000000000000000000000000000000000000815260040161036c90610c79565b60405180910390fd5b60008273ffffffffffffffffffffffffffffffffffffffff168260405161039b90610cca565b60006040518083038185875af1925050503d80600081146103d8576040519150601f19603f3d011682016040523d82523d6000602084013e6103dd565b606091505b5050905080610421576040517f08c379a000000000000000000000000000000000000000000000000000000000815260040161041890610d2b565b60405180910390fd5b8273ffffffffffffffffffffffffffffffffffffffff163073ffffffffffffffffffffffffffffffffffffffff167f87ccb56d61665932c42531b01a83fa5059d346635f361d1fb026c24e9babc29a8460405161047e9190610d7f565b60405180910390a3505050565b61049d8161049890611015565b6105b6565b6000816040516020016104b0919061123c565b6040516020818303038152906040528051906020012090506104d28282610663565b5060003073ffffffffffffffffffffffffffffffffffffffff168380604001906104fc919061126d565b60405161050a9291906112f5565b6000604051808303816000865af19150503d8060008114610547576040519150601f19603f3d011682016040523d82523d6000602084013e61054c565b606091505b5050905080610590576040517f08c379a00000000000000000000000000000000000000000000000000000000081526004016105879061135a565b60405180910390fd5b505050565b60008173ffffffffffffffffffffffffffffffffffffffff16319050919050565b806020015160008081819054906101000a90046bffffffffffffffffffffffff16809291906105e4906113c1565b91906101000a8154816bffffffffffffffffffffffff02191690836bffffffffffffffffffffffff1602179055506bffffffffffffffffffffffff1614610660576040517f08c379a000000000000000000000000000000000000000000000000000000000815260040161065790611441565b60405180910390fd5b50565b6000604183806101000190610678919061126d565b9050146106ba576040517f08c379a00000000000000000000000000000000000000000000000000000000081526004016106b1906114ad565b60405180910390fd5b6000826040516020016106cd919061154f565b6040516020818303038152906040528051906020012090506000600182868061010001906106fb919061126d565b600081811061070d5761070c611575565b5b9050013560f81c60f81b60f81c8780610100019061072b919061126d565b60019060219261073d939291906115ae565b906107489190611601565b88806101000190610759919061126d565b60219060419261076b939291906115ae565b906107769190611601565b60405160008152602001604052604051610793949392919061168b565b6020604051602081039080840390855afa1580156107b5573d6000803e3d6000fd5b5050506020604051035190506000600c9054906101000a900473ffffffffffffffffffffffffffffffffffffffff1673ffffffffffffffffffffffffffffffffffffffff168173ffffffffffffffffffffffffffffffffffffffff1614610851576040517f08c379a00000000000000000000000000000000000000000000000000000000081526004016108489061171c565b60405180910390fd5b60009250505092915050565b6000819050919050565b6108708161085d565b82525050565b600060208201905061088b6000830184610867565b92915050565b6000604051905090565b600080fd5b600080fd5b600073ffffffffffffffffffffffffffffffffffffffff82169050919050565b60006108d0826108a5565b9050919050565b6108e0816108c5565b81146108eb57600080fd5b50565b6000813590506108fd816108d7565b92915050565b61090c8161085d565b811461091757600080fd5b50565b60008135905061092981610903565b92915050565b600080604083850312156109465761094561089b565b5b6000610954858286016108ee565b92505060206109658582860161091a565b9150509250929050565b610978816108c5565b82525050565b6000602082019050610993600083018461096f565b92915050565b60006109a4826108a5565b9050919050565b6109b481610999565b81146109bf57600080fd5b50565b6000813590506109d1816109ab565b92915050565b600080604083850312156109ee576109ed61089b565b5b60006109fc858286016109c2565b9250506020610a0d8582860161091a565b9150509250929050565b600080fd5b60006101208284031215610a3357610a32610a17565b5b81905092915050565b600060208284031215610a5257610a5161089b565b5b600082013567ffffffffffffffff811115610a7057610a6f6108a0565b5b610a7c84828501610a1c565b91505092915050565b600060208284031215610a9b57610a9a61089b565b5b6000610aa9848285016108ee565b91505092915050565b600082825260208201905092915050565b7f496e76616c696420726563697069656e74206164647265737300000000000000600082015250565b6000610af9601983610ab2565b9150610b0482610ac3565b602082019050919050565b60006020820190508181036000830152610b2881610aec565b9050919050565b7f4465706f73697420616d6f756e74206d7573742062652067726561746572207460008201527f68616e2030000000000000000000000000000000000000000000000000000000602082015250565b6000610b8b602583610ab2565b9150610b9682610b2f565b604082019050919050565b60006020820190508181036000830152610bba81610b7e565b9050919050565b7f496e73756666696369656e742076616c75652073656e74000000000000000000600082015250565b6000610bf7601783610ab2565b9150610c0282610bc1565b602082019050919050565b60006020820190508181036000830152610c2681610bea565b9050919050565b7f496e73756666696369656e742062616c616e6365000000000000000000000000600082015250565b6000610c63601483610ab2565b9150610c6e82610c2d565b602082019050919050565b60006020820190508181036000830152610c9281610c56565b9050919050565b600081905092915050565b50565b6000610cb4600083610c99565b9150610cbf82610ca4565b600082019050919050565b6000610cd582610ca7565b9150819050919050565b7f5472616e73666572206661696c65640000000000000000000000000000000000600082015250565b6000610d15600f83610ab2565b9150610d2082610cdf565b602082019050919050565b60006020820190508181036000830152610d4481610d08565b9050919050565b600082825260208201905092915050565b6000610d69600083610d4b565b9150610d7482610ca4565b600082019050919050565b6000604082019050610d946000830184610867565b8181036020830152610da581610d5c565b905092915050565b600080fd5b6000601f19601f8301169050919050565b7f4e487b7100000000000000000000000000000000000000000000000000000000600052604160045260246000fd5b610dfb82610db2565b810181811067ffffffffffffffff82111715610e1a57610e19610dc3565b5b80604052505050565b6000610e2d610891565b9050610e398282610df2565b919050565b600080fd5b600080fd5b600080fd5b600067ffffffffffffffff821115610e6857610e67610dc3565b5b610e7182610db2565b9050602081019050919050565b82818337600083830152505050565b6000610ea0610e9b84610e4d565b610e23565b905082815260208101848484011115610ebc57610ebb610e48565b5b610ec7848285610e7e565b509392505050565b600082601f830112610ee457610ee3610e43565b5b8135610ef4848260208601610e8d565b91505092915050565b60006101208284031215610f1457610f13610dad565b5b610f1f610120610e23565b90506000610f2f848285016108ee565b6000830152506020610f438482850161091a565b602083015250604082013567ffffffffffffffff811115610f6757610f66610e3e565b5b610f7384828501610ecf565b6040830152506060610f878482850161091a565b6060830152506080610f9b8482850161091a565b60808301525060a0610faf8482850161091a565b60a08301525060c0610fc38482850161091a565b60c08301525060e0610fd78482850161091a565b60e08301525061010082013567ffffffffffffffff811115610ffc57610ffb610e3e565b5b61100884828501610ecf565b6101008301525092915050565b60006110213683610efd565b9050919050565b600061103760208401846108ee565b905092915050565b611048816108c5565b82525050565b600061105d602084018461091a565b905092915050565b61106e8161085d565b82525050565b600080fd5b600080fd5b600080fd5b600080833560016020038436030381126110a05761109f61107e565b5b83810192508235915060208301925067ffffffffffffffff8211156110c8576110c7611074565b5b6001820236038313156110de576110dd611079565b5b509250929050565b600082825260208201905092915050565b600061110383856110e6565b9350611110838584610e7e565b61111983610db2565b840190509392505050565b600061012083016111386000840184611028565b611145600086018261103f565b50611153602084018461104e565b6111606020860182611065565b5061116e6040840184611083565b85830360408701526111818382846110f7565b92505050611192606084018461104e565b61119f6060860182611065565b506111ad608084018461104e565b6111ba6080860182611065565b506111c860a084018461104e565b6111d560a0860182611065565b506111e360c084018461104e565b6111f060c0860182611065565b506111fe60e084018461104e565b61120b60e0860182611065565b5061121a610100840184611083565b85830361010087015261122e8382846110f7565b925050508091505092915050565b600060208201905081810360008301526112568184611124565b905092915050565b600080fd5b600080fd5b600080fd5b6000808335600160200384360303811261128a5761128961125e565b5b80840192508235915067ffffffffffffffff8211156112ac576112ab611263565b5b6020830192506001820236038313156112c8576112c7611268565b5b509250929050565b60006112dc8385610c99565b93506112e9838584610e7e565b82840190509392505050565b60006113028284866112d0565b91508190509392505050565b7f43616c6c20657865637574696f6e206661696c65640000000000000000000000600082015250565b6000611344601583610ab2565b915061134f8261130e565b602082019050919050565b6000602082019050818103600083015261137381611337565b9050919050565b7f4e487b7100000000000000000000000000000000000000000000000000000000600052601160045260246000fd5b60006bffffffffffffffffffffffff82169050919050565b60006113cc826113a9565b91506bffffffffffffffffffffffff82036113ea576113e961137a565b5b600182019050919050565b7f4163636f756e743a20496e76616c6964206e6f6e636500000000000000000000600082015250565b600061142b601683610ab2565b9150611436826113f5565b602082019050919050565b6000602082019050818103600083015261145a8161141e565b9050919050565b7f496e76616c6964207369676e6174757265206c656e6774680000000000000000600082015250565b6000611497601883610ab2565b91506114a282611461565b602082019050919050565b600060208201905081810360008301526114c68161148a565b9050919050565b600081905092915050565b7f19457468657265756d205369676e6564204d6573736167653a0a333200000000600082015250565b600061150e601c836114cd565b9150611519826114d8565b601c82019050919050565b6000819050919050565b6000819050919050565b61154961154482611524565b61152e565b82525050565b600061155a82611501565b91506115668284611538565b60208201915081905092915050565b7f4e487b7100000000000000000000000000000000000000000000000000000000600052603260045260246000fd5b600080fd5b600080fd5b600080858511156115c2576115c16115a4565b5b838611156115d3576115d26115a9565b5b6001850283019150848603905094509492505050565b600082905092915050565b600082821b905092915050565b600061160d83836115e9565b826116188135611524565b92506020821015611658576116537fffffffffffffffffffffffffffffffffffffffffffffffffffffffffffffffff836020036008026115f4565b831692505b505092915050565b61166981611524565b82525050565b600060ff82169050919050565b6116858161166f565b82525050565b60006080820190506116a06000830187611660565b6116ad602083018661167c565b6116ba6040830185611660565b6116c76060830184611660565b95945050505050565b7f4163636f756e743a2057726f6e67207369676e61747572650000000000000000600082015250565b6000611706601883610ab2565b9150611711826116d0565b602082019050919050565b60006020820190508181036000830152611735816116f9565b905091905056fea2646970667358221220672eda2b38e3abab030d769537a16dae2a4f17978f3eff8de9b0d214c11d394364736f6c63430008140033",
  "linkReferences": {},
  "deployedLinkReferences": {}
}